S012000050574D434845434B45522E7372656329
S11300000C945A000C9464000C9464000C946400E6
S11300100C9464000C9464000C9464000C946400CC
S11300200C9464000C9464000C9464000C946400BC
S11300300C9464000C9464000C9464000C946400AC
S11300400C9464000C9464000C9464000C9464009C
S11300500C9464000C9464000C9464000C9464008C
S11300600C9464000C9464000C9464000C9464007C
S11300700C9464000C9464000C9464000C9464006C
S11300800C9464000C9464000C9464000C9464005C
S11300900C9464000C9464000C9464000C9464004C
S11300A00C9464000C9464000C9464000C9464003C
S11300B00C94640011241FBECFEFD8E0DEBFCDBF87
S11300C00E9466000C9481000C9400008FEF8AB9A2
S11300D083EA8093B0008FE08093B1008AEF80932D
S11300E0B3001092B400E4EBF0E088E72FEF34E3C0
S11300F09CE0215030409040E1F700C00000808334
S1090100F5CFF894FFCFD7
S9030000FC
