:100000000C9434000C94E6020C9451000C945100B2
:100010000C9451000C9451000C9451000C9451001C
:100020000C9451000C9451000C9451000C9451000C
:100030000C9451000C9451000C9451000C945100FC
:100040000C9451000C9451000C9451000C945100EC
:100050000C9451000C9451000C9451000C945100DC
:100060000C9451000C94510011241FBECFEFD8E026
:10007000DEBFCDBF12E0A0E0B1E0EAEBFFE002C0DE
:1000800005900D92AC39B107D9F722E0ACE9B2E0A6
:1000900001C01D92AF3DB207E1F70E94D2030C945C
:1000A000DB070C940000DF92EF92FF920F931F93F7
:1000B000CF93DF937B018A012A980E94B202D82E47
:1000C0000115110551F0E7010E0D1F1D88810E94D9
:1000D000B2028993C017D107C9F72A9A8D2DDF91F3
:1000E000CF911F910F91FF90EF90DF900895806264
:1000F0000E94530008950E94530008950F931F9388
:10010000CF93DF931F92CDB7DEB7F894E9E6F0E026
:10011000808182608083E89A7894219A229A2A9A30
:1001200029980E94A3022FEF81EE94E02150804095
:100130009040E1F700C000000FE30093BE0241E0F1
:1001400050E06EEB72E080E00E9477001092BE02F9
:1001500041E050E06EEB72E081E00E94770080EFBA
:100160008093BE0241E050E06EEB72E084E00E94BA
:1001700077001092BE0241E050E06EEB72E082E048
:100180000E94770084E78093BE0241E050E06EEB6E
:1001900072E085E00E9477008EE08093BE0241E02D
:1001A00050E06EEB72E086E00E94770010E710935B
:1001B000BE0241E050E06EEB72E087E00E94770003
:1001C0000093BE0241E050E06EEB72E08CE10E94D1
:1001D000770084E08093BE0241E050E06EEB72E075
:1001E0008DE10E947700198340E050E060E070E00C
:1001F00082EE0E94770040E050E060E070E081EE27
:100200000E94770045E050E065E071E08AE00E94DE
:10021000770045E050E060E071E080E10E94770007
:1002200041E050E0BE016F5F7F4F82E00E947700A7
:1002300089818160898341E050E0BE016F5F7F4F1B
:1002400082E00E9477000F90DF91CF911F910F9174
:1002500008951F93CF93DF931F92CDB7DEB7182F6A
:1002600041E050E0BE016F5F7F4F80E00E947B0065
:10027000133071F128F4113059F01230E9F05EC0FA
:10028000153009F447C0D0F1163009F445C056C006
:10029000898181FD53C082608093BE0241E050E0BD
:1002A0006EEB72E080E00E9477008FE39FE10197A0
:1002B000F1F700C0000042C089818D7F8093BE02AB
:1002C00041E050E06EEB72E080E00E94770036C0C3
:1002D000898181608093BE0241E050E06EEB72E064
:1002E00080E00E94770080E78093BE0241E050E00A
:1002F0006EEB72E087E00E94770020C089818E7FDC
:100300008093BE0241E050E06EEB72E080E00E941C
:10031000770014C0299812C089818E7F8093BE0215
:1003200041E050E06EEB72E080E00E947700299A95
:1003300087E592E00197F1F700C000000F90DF9190
:10034000CF911F91089583E00E942901299A87E5A2
:1003500092E00197F1F700C000000895CF92DF927C
:10036000EF92FF920F931F93CF93DF93CDB7DEB73A
:10037000A0970FB6F894DEBF0FBECDBF6C01689496
:10038000FF24F5F8CE010196FC012F2D11922A953C
:10039000E9F7B6010E949604F60101900020E9F702
:1003A00031978F010C191D0984E00E94290140E05A
:1003B00050E060E070E082EE0E94770040E050E0A4
:1003C00060E070E081EE0E947700F092BE0241E0B2
:1003D00050E06EEB72E087E00E94770041E050E071
:1003E0006EEB72E080E00E947B008091BE02806430
:1003F0008093BE0241E050E06EEB72E080E00E942C
:1004000077002A9880EB0E94AD02EFEFE00F002307
:1004100081F08601EE2EF12CF70131967601EE0E79
:10042000FF1EF80181918F010E94AD020E151F057C
:10043000C1F780E00E94AD022A9A299AF0E5FA9568
:10044000F1F7299841E050E06EEB72E087E00E94FE
:100450007B008091BE0285FD0BC041E050E06EEB59
:1004600072E087E00E947B008091BE0285FFF5CF9D
:10047000CE0101969F938F9386E291E09F938F9395
:100480000E949D0441E050E06EEB72E080E00E942B
:100490007B008091BE028F7B8093BE0241E050E0E2
:1004A0006EEB72E080E00E9477000E94A3010F9043
:1004B0000F900F900F9081E0A0960FB6F894DEBFDA
:1004C0000FBECDBFDF91CF911F910F91FF90EF90A5
:1004D000DF90CF90089580E2ECE9F2E0DF011D9219
:1004E0008A95E9F741E050E06EEB72E080E60E9409
:1004F0007B004091BE02442341F050E04F5F5F4FCC
:100500006CE972E081E60E94530080919C0288238E
:1005100069F080E48093BE0241E050E06EEB72E04F
:1005200087E00E9477008CE992E0089580E4809350
:10053000BE0241E050E06EEB72E087E00E9477007F
:1005400088E391E00895249884B1886284B980E5B5
:100550008CBD8DB581608DBD08958EBD0DB407FE37
:10056000FDCF08958EBD0DB407FEFDCF8EB5089565
:10057000CF93C82F8A3019F48DE00E94B802E0ECC6
:10058000F0E0808185FFFDCFC093C60080E090E061
:10059000CF910895E0ECF0E080818823ECF7809122
:1005A000C60090E008951092C50087E68093C400CD
:1005B00088E18093C100E9EDF2E088E191E0938366
:1005C00082838AE091E09183808308951F920F9245
:1005D0000FB60F9211248F9381E08093BD028F910B
:1005E0000F900FBE0F901F901895CF93DF931F921F
:1005F000CDB7DEB78FE391E00E94B3048DE691E0C2
:100600000E94B30441E050E0BE016F5F7F4F80E085
:100610000E947B0089811F928F9389E991E09F93CB
:100620008F930E949D0441E050E0BE016F5F7F4FB9
:1006300081E00E947B0089811F928F9389EA91E07B
:100640009F938F930E949D0441E050E0BE016F5F35
:100650007F4F82E00E947B0089811F928F9389EBFC
:1006600091E09F938F930E949D0441E050E0BE0172
:100670006F5F7F4F84E00E947B0089811F928F9380
:100680008CEC91E09F938F930E949D0441E050E099
:10069000BE016F5F7F4F85E00E947B0089811F92C2
:1006A0008F9380EE91E09F938F930E949D0441E091
:1006B00050E0BE016F5F7F4F86E00E947B00898122
:1006C0001F928F9380EF91E09F938F930E949D04E0
:1006D00041E050E0BE016F5F7F4F87E00E947B00EA
:1006E00089811F928F9382E092E09F938F930E9463
:1006F0009D0441E050E0BE016F5F7F4F8DE10E949D
:100700007B0089811F928F9382E192E09F938F9368
:100710000E949D040FB6F894DEBF0FBECDBF83E2EA
:1007200092E00E94B3040F90DF91CF91089584E48A
:1007300080937C0085E880937A0008951092D4021B
:100740001092D30224E0EAE7F0E0A8E7B0E080816D
:1007500080648083808186FDFDCF4D915C911197EF
:100760008091D3029091D402840F951F9093D4026C
:100770008093D3023FEF80E792E031508040904079
:10078000E1F700C00000215011F78091D302909151
:10079000D40296958795969587959093D4028093E9
:1007A000D3020895CF93DF93CDB7DEB7A0970FB6EE
:1007B000F894DEBF0FBECDBF85E1E0E5F2E0DE01DB
:1007C000119601900D928A95E1F70E94D3020E9442
:1007D00097030E947E000E94F5020E94A3010F2E43
:1007E000F4EFAF2EBB24B394F02D0F2ECC24CA947B
:1007F000F3E0DF2EF02D0F2EF5E6EF2EF2E0FF2EC8
:10080000F02D0FEB12E00F2EFBE68F2EF2E09F2E65
:10081000F02D502E612E0F2EF4E17F2EF02D0E9430
:100820009E032091D3023091D4022A9DC0012B9DBA
:10083000900D3A9D900D1124B6010E948204709390
:10084000D4026093D3028091D3029091D402449653
:100850009093D8028093D7028091D7029091D802CA
:100860009F938F93FF92EF921F927F921F930F930C
:100870000E94E304652D762DCE0101960E94960418
:10088000CE0101960E94AE012FEF3DE389E4215095
:1008900030408040E1F700C000008091BD020FB6FB
:1008A000F894DEBF0FBECDBF882309F4B8CF1092F5
:1008B000BD020E946B029F938F939F928F920E9422
:1008C0009D043FEF89E698E1315080409040E1F788
:1008D00000C00000CE0101960E94AE0191E00F9091
:1008E0000F900F900F90811101C090E09093BC0287
:1008F0008091BC02882309F492CF81E892E00E94A3
:10090000B30489CFAA1BBB1B51E107C0AA1FBB1FA1
:10091000A617B70710F0A61BB70B881F991F5A958B
:10092000A9F780959095BC01CD010895FB01DC01EC
:1009300001900D920020E1F70895A0E0B0E0E3EA15
:10094000F4E00C94B407AE014B5F5F4FFA01619184
:100950007191AF018091DB029091DC020E9413053E
:10096000E2E00C94D0070F931F93CF93DF93E091B5
:10097000DB02F091DC02238121FF1BC08C01D0E05F
:10098000C0E0F80181918F016091DB027091DC027F
:10099000DB011896ED91FC911997882331F00995A8
:1009A000892B79F3DFEFCFEFECCF8AE00995892B24
:1009B00019F08FEF9FEF02C08D2F9C2FDF91CF9109
:1009C0001F910F910895AEE0B0E0E9EEF4E00C94D1
:1009D000B2070D891E898F89988D26E02C831A8392
:1009E000098397FF02C080E090E801979E838D8382
:1009F000AE01455E5F4F698D7A8DCE0101960E94F2
:100A000013054D815E8157FD0AC02F81388542173D
:100A100053070CF49A01F801E20FF31F10822E968F
:100A2000E4E00C94CE07ABE0B0E0E9E1F5E00C9433
:100A3000A4076C017B018A01FC0117821682838165
:100A400081FFCCC1CE0101963C01F6019381F701F3
:100A500093FD859193FF81917F01882309F4BAC1A9
:100A6000853239F493FD859193FF81917F01853221
:100A700029F4B60190E00E940A07E7CF912C212CBF
:100A8000312CFFE1F315D8F08B3279F038F4803255
:100A900079F08332A1F4232D20611DC08D3261F0E5
:100AA000803369F4232D216016C0832D8260382E97
:100AB000E32DE4603E2E2AC0F32DF8601DC037FC04
:100AC0002DC020ED280F2A3040F08E32B9F436FCCC
:100AD00081C1232D2064322E19C036FE06C08AE063
:100AE000989E200D1124922E11C0EAE02E9E200D1A
:100AF0001124222EF32DF0623F2E08C08C3621F4F3
:100B0000832D8068382E02C0883641F4F70193FDAA
:100B1000859193FF81917F018111B3CF982F9F7DA4
:100B20009554933028F40C5F1F4F9FE399830DC0B9
:100B3000833631F0833771F0833509F059C021C015
:100B4000F801808189830E5F1F4F88248394912C44
:100B5000530113C02801F2E04F0E511CF801A08090
:100B6000B18036FE03C0692D70E002C06FEF7FEFE9
:100B7000C5010E94FF064C018201F32DFF773F2E35
:100B800016C0280122E0420E511CF801A080B1805D
:100B900036FE03C0692D70E002C06FEF7FEFC50124
:100BA0000E94F4064C01F32DF0683F2E820133FCC5
:100BB0001BC0822D90E088169906B0F4B60180E241
:100BC00090E00E940A072A94F4CFF50137FC859142
:100BD00037FE81915F01B60190E00E940A07211063
:100BE0002A9421E0821A91088114910471F7E8C0D7
:100BF000843611F0893641F5F80137FE07C060816F
:100C00007181828193810C5F1F4F08C06081718167
:100C1000072E000C880B990B0E5F1F4FF32DFF76EC
:100C20003F2E97FF09C090958095709561957F4FF5
:100C30008F4F9F4FF0683F2E2AE030E0A3010E94C3
:100C40004607882E861845C0853731F4232D2F7E20
:100C5000B22E2AE030E025C0932D997FB92E8F3631
:100C6000C1F018F4883579F0B5C0803719F08837AD
:100C700021F0B0C0E92FE061BE2EB4FE0DC0FB2D07
:100C8000F460BF2E09C034FE0AC0292F2660B22EA0
:100C900006C028E030E005C020E130E002C020E1DD
:100CA00032E0F801B7FE07C06081718182819381D3
:100CB0000C5F1F4F06C06081718180E090E00E5F85
:100CC0001F4FA3010E944607882E8618FB2DFF7731
:100CD0003F2E36FE0DC0232D2E7FA22E891458F4F0
:100CE00034FE0BC032FC09C0832D8E7EA82E05C0B9
:100CF000B82CA32C03C0B82C01C0B92CA4FE0FC083
:100D0000FE01E80DF11D8081803321F49A2D997E3A
:100D1000A92E09C0A2FE06C0B394B39404C08A2DC4
:100D2000867809F0B394A3FC11C0A0FE06C0B214EB
:100D300088F4280C922C9B180EC0B21460F4B601F3
:100D400080E290E00E940A07B394F7CFB21418F43F
:100D50002B1802C0982C212CA4FE10C0B60180E3F1
:100D600090E00E940A07A2FE17C0A1FC03C088E71A
:100D700090E002C088E590E0B6010CC08A2D86782C
:100D800059F0A1FE02C08BE201C080E2A7FC8DE217
:100D9000B60190E00E940A07891438F4B60180E396
:100DA00090E00E940A079A94F7CF8A94F301E80D25
:100DB000F11D8081B60190E00E940A078110F5CFF5
:100DC000222009F442CEB60180E290E00E940A0798
:100DD0002A94F6CFF6018681978102C08FEF9FEFAC
:100DE0002B96E2E10C94C007FC0105906150704025
:100DF0000110D8F7809590958E0F9F1F0895FC01E4
:100E00006150704001900110D8F7809590958E0F39
:100E10009F1F08950F931F93CF93DF93FB012381AF
:100E200021FD03C08FEF9FEF2CC022FF16C046812B
:100E30005781248135814217530744F4A081B18141
:100E40009D012F5F3F4F318320838C932681378113
:100E50002F5F3F4F3783268314C08B01EC01FB01CA
:100E60000084F185E02D0995892BE1F6D8011696CD
:100E70008D919C911797019617969C938E93169738
:100E8000CE01DF91CF911F910F910895FA01AA270A
:100E9000283051F1203181F1E8946F936E7F6E5FBD
:100EA0007F4F8F4F9F4FAF4FB1E03ED0B4E03CD06B
:100EB000670F781F891F9A1FA11D680F791F8A1F4E
:100EC000911DA11D6A0F711D811D911DA11D20D0B5
:100ED00009F468943F912AE0269F11243019305D6F
:100EE0003193DEF6CF010895462F4770405D419360
:100EF000B3E00FD0C9F7F6CF462F4F70405D4A33AD
:100F000018F0495D31FD4052419302D0A9F7EACF74
:100F1000B4E0A6959795879577956795BA95C9F7A3
:100F200000976105710508959B01AC010A2E069496
:100F30005795479537952795BA95C9F7620F731F4F
:100F4000841F951FA01D08952F923F924F925F928C
:100F50006F927F928F929F92AF92BF92CF92DF92C9
:100F6000EF92FF920F931F93CF93DF93CDB7DEB72E
:100F7000CA1BDB0B0FB6F894DEBF0FBECDBF0994C2
:100F80002A88398848885F846E847D848C849B8419
:100F9000AA84B984C884DF80EE80FD800C811B8127
:100FA000AA81B981CE0FD11D0FB6F894DEBF0FBE56
:0A0FB000CDBFED010895F894FFCFC6
:100FBA00666666666655555555550000000100007F
:100FCA0000000000CA020000000000020000000049
:100FDA00B802000000004D65737361676520736590
:100FEA006E743A2025730A006661696C6564005361
:100FFA007461727475702073756363657373667553
:10100A006C0A0A206E524632344C30312B20636F00
:10101A006E666967757265642061733A002D2D2DBD
:10102A002D2D2D2D2D2D2D2D2D2D2D2D2D2D2D2DE6
:10103A002D2D2D2D2D2D2D2D2D2D2D2D2D2D2D2DD6
:10104A002D2D2D2D2D2D2D2D00434F4E464947096F
:10105A00093078253032580A00454E5F4141090966
:10106A00093078253032580A00454E5F52584144BB
:10107A00445209093078253032580A0053455455EC
:10108A00505F5245545209093078253032580A00C7
:10109A0052465F43480909093078253032580A0018
:1010AA0052465F5345545550090930782530325815
:1010BA000A0053544154555309093078253032589F
:1010CA000A004645415455524509093078253032BF
:1010DA00580A002D2D2D2D2D2D2D2D2D2D2D2D2D5B
:1010EA002D2D2D2D2D2D2D2D2D2D2D2D2D2D2D2D26
:1010FA002D2D2D2D2D2D2D2D2D2D2D2D2D2D0A0066
:10110A00416E746D616E20496E736964652054681E
:10111A00616E6F73002533640D0A00526563656959
:10112A00766564206D6573736167653A2025730A75
:10113A00004D6573736167652073656E74207375FE
:0C114A00636365737366756C6C7900005C
:00000001FF
