S01D000044657369676E41737369676E6D656E7432415F32432E737265634D
S11300000C9434000C943E000C943E000C943E007E
S11300100C943E000C943E000C943E000C943E0064
S11300200C943E000C943E000C943E000C943E0054
S11300300C943E000C943E000C943E000C943E0044
S11300400C943E000C943E000C943E000C943E0034
S11300500C943E000C943E000C943E000C943E0024
S11300600C943E000C943E0011241FBECFEFD8E048
S1130070DEBFCDBF0E9440000C9454000C940000DD
S11300808FEF84B917B888B99FEF95B986B18D37CA
S1130090E1F715B82FEF38E08DE321503040804070
S10F00A0E1F700C00000F1CFF894FFCF9E
S9030000FC
