:100000000C9434000C9446000C9446000C9446006A
:100010000C9446000C9446000C9446000C94460048
:100020000C9446000C9446000C9446000C94460038
:100030000C9446000C9446000C9446000C94460028
:100040000C9446000C9446000C9446000C94460018
:100050000C9446000C9446000C9446000C94460008
:100060000C9446000C94460011241FBECFEFD8E03C
:10007000DEBFCDBF21E0A0E0B1E001C01D92A23003
:10008000B207E1F70E9448000C946D000C94000048
:10009000229A2A9A87B117B8429A14BC85E085BD86
:1000A00021E034E0319905C0109201011092000165
:1000B00016BCA89BFECF16BC25BB80910001909179
:1000C0000101019690930101809300018434910510
:0E00D00014F415B8E7CF35B9E5CFF894FFCF9B
:00000001FF
