:100000000C9434000C9451000C9451000C94510049
:100010000C9451000C9451000C9451000C9451001C
:100020000C9451000C9451000C9451000C9451000C
:100030000C9451000C9451000C9451000C945100FC
:100040000C9451000C9451000C9451000C945100EC
:100050000C9451000C9451000C9451000C945100DC
:100060000C9451000C94510011241FBECFEFD8E026
:10007000DEBFCDBF11E0A0E0B1E0E4E8FBE002C0EC
:1000800005900D92A43FB107D9F721E0A4EFB1E0AC
:1000900001C01D92AA3FB207E1F70E9420020C9412
:1000A000C0050C94000088E48093B8000895ECEB40
:1000B000F0E0108294EA908390819923ECF790917C
:1000C000B900987F9830A1F48093BB0084E88093B6
:1000D000BC00ECEBF0E080818823ECF79091B90054
:1000E000987F983139F081E0903429F480E00895C8
:1000F00081E0089580E008958093BB0084E88093B8
:10010000BC00ECEBF0E080818823ECF79091B90023
:10011000987F81E0983209F480E0089584EC809320
:10012000BC00ECEBF0E080818823ECF78091BB0011
:10013000089584E88093BC00ECEBF0E08081882394
:10014000ECF78091BB000895CF92DF92FF920F935E
:100150001F93CF93DF93C62F6A0189010E94570036
:10016000F82E811115C08C2F0E947C0001151105FD
:1001700059F0E6010C0D1D1D89910E947C00811132
:100180000AC0C017D107C1F784E98093BC0005C03D
:10019000FF24F39402C0FF24F3948F2DDF91CF91BD
:1001A0001F910F91FF90DF90CF900895AF92BF9273
:1001B000DF92EF92FF920F931F93CF93DF93182F4D
:1001C000062F5A01E9010E945700811122C0802F99
:1001D0000E947C00812F81600E945700D82E8111DF
:1001E0001BC08E010150110951F0E5017501E00EAF
:1001F000F11E0E948E008993EC16FD06D1F7E501F1
:10020000C00FD11F0E949900888384E98093BC00AD
:1002100005C0DD24D39402C0DD24D3948D2DDF915D
:10022000CF911F910F91FF90EF90DF90BF90AF9013
:100230000895E0ECF0E0908195FFFDCF8093C6003B
:1002400080E090E00895CF93DF931F92CDB7DEB7A3
:1002500021E030E0AE014F5F5F4F62E982E70E942C
:10026000D60089818B3A09F0FFCF8BE1898321E0A9
:1002700030E0AE014F5F5F4F60E882E70E94A4006C
:100280008BED898321E030E0AE014F5F5F4F61E885
:1002900082E70E94A40086EF898321E030E0AE016E
:1002A0004F5F5F4F63E882E70E94A40087E889837D
:1002B00021E030E0AE014F5F5F4F6EE882E70E94C1
:1002C000A400198221E030E0AE014F5F5F4F6DE97D
:1002D00082E70E94A400198221E030E0AE014F5F66
:1002E0005F4F6EE982E70E94A40080E6898321E0E7
:1002F00030E0AE014F5F5F4F6DE882E70E94A400DF
:1003000081E1898321E030E0AE014F5F5F4F6CE80F
:1003100082E70E94A40081E0898321E030E0AE0101
:100320004F5F5F4F60E982E70E94A400198221E0DD
:1003300030E0AE014F5F5F4F6FE982E70E94A4009B
:100340000F90DF91CF910895CF92DF92EF92FF92BD
:100350000F931F93CF93DF9300D000D000D0CDB781
:10036000DEB76C017B018A0121E030E0AE014F5F16
:100370005F4F66E982E70E94D60021E030E0AE01DF
:100380004E5F5F4F67E982E70E94D60021E030E0D0
:10039000AE014D5F5F4F68E982E70E94D60021E021
:1003A00030E0AE014C5F5F4F69E982E70E94D60002
:1003B00021E030E0AE014B5F5F4F6AE982E70E94C7
:1003C000D60021E030E0AE014A5F5F4F6BE982E783
:1003D0000E94D6008A8190E0982F88272981822B5D
:1003E000F601918380838C8190E0982F88272B8160
:1003F000822BF701918380838E8190E0982F88274C
:100400002D81822BF8019183808326960FB6F89474
:10041000DEBF0FBECDBFDF91CF911F910F91FF9037
:10042000EF90DF90CF9008951092C50087E68093FB
:10043000C40088E18093C10086E08093C2000895E3
:10044000CF93DF9300D000D000D0CDB7DEB71A82B3
:1004500019821C821B821E821D820E9453000E94F0
:10046000140280E091E09093F7018093F6010E94DE
:1004700023012FEF87EA91E6215080409040E1F779
:1004800000C000008EE091E00E94C8022FEF83E2DE
:1004900094EF215080409040E1F700C0000082E1DD
:1004A00091E00E94C8022FEF83E294EF2150804038
:1004B0009040E1F700C000008FE191E00E94C80287
:1004C0000EE811E02FEF83E294EF2150804090403E
:1004D000E1F700C0000086E491E00E94C8022FEF1F
:1004E00083E294EF215080409040E1F700C000008B
:1004F00083E591E00E94C8022FEF83E294EF215040
:1005000080409040E1F700C00000AE014B5F5F4FBC
:10051000BE016D5F7F4FCE0101960E94A4018EE760
:1005200091E00E94C8028E818F938D818F938C8180
:100530008F938B818F938A818F9389818F931F9360
:100540000F930E94B2022FEF83E294EF215080407C
:100550009040E1F700C000000FB6F894DEBF0FBE78
:10056000CDBFB0CFA0E0B0E0E8EBF2E00C9499058D
:10057000AE014B5F5F4FFA0161917191AF018091C4
:10058000F6019091F7010E94F802E2E00C94B505A3
:100590000F931F93CF93DF93E091F601F091F70152
:1005A000238121FF1BC08C01D0E0C0E0F8018191C4
:1005B0008F016091F6017091F701DB011896ED91C2
:1005C000FC911997882331F00995892B79F3DFEF96
:1005D000CFEFECCF8AE00995892B19F08FEF9FEFD1
:1005E00002C08D2F9C2FDF91CF911F910F91089505
:1005F000ABE0B0E0EEEFF2E00C9489056C017B011A
:100600008A01FC0117821682838181FFCCC1CE0151
:1006100001963C01F6019381F70193FD859193FFCB
:1006200081917F01882309F4BAC1853239F493FDA1
:10063000859193FF81917F01853229F4B60190E085
:100640000E94EF04E7CF912C212C312CFFE1F31510
:10065000D8F08B3279F038F4803279F08332A1F41B
:10066000232D20611DC08D3261F0803369F4232D6C
:10067000216016C0832D8260382EE32DE4603E2E6B
:100680002AC0F32DF8601DC037FC2DC020ED280FC7
:100690002A3040F08E32B9F436FC81C1232D20641B
:1006A000322E19C036FE06C08AE0989E200D112415
:1006B000922E11C0EAE02E9E200D1124222EF32D41
:1006C000F0623F2E08C08C3621F4832D8068382ECE
:1006D00002C0883641F4F70193FD859193FF819123
:1006E0007F018111B3CF982F9F7D9554933028F4CB
:1006F0000C5F1F4F9FE399830DC0833631F0833722
:1007000071F0833509F059C021C0F80180818983D7
:100710000E5F1F4F88248394912C530113C028012E
:10072000F2E04F0E511CF801A080B18036FE03C0EC
:10073000692D70E002C06FEF7FEFC5010E94E404F5
:100740004C018201F32DFF773F2E16C0280122E0D5
:10075000420E511CF801A080B18036FE03C0692D05
:1007600070E002C06FEF7FEFC5010E94D9044C0119
:10077000F32DF0683F2E820133FC1BC0822D90E0E8
:1007800088169906B0F4B60180E290E00E94EF046A
:100790002A94F4CFF50137FC859137FE81915F01F2
:1007A000B60190E00E94EF0421102A9421E0821A01
:1007B00091088114910471F7E8C0843611F08936EC
:1007C00041F5F80137FE07C0608171818281938114
:1007D0000C5F1F4F08C060817181072E000C880BD1
:1007E000990B0E5F1F4FF32DFF763F2E97FF09C029
:1007F00090958095709561957F4F8F4F9F4FF068D2
:100800003F2E2AE030E0A3010E942B05882E861897
:1008100045C0853731F4232D2F7EB22E2AE030E0FB
:1008200025C0932D997FB92E8F36C1F018F48835E5
:1008300079F0B5C0803719F0883721F0B0C0E92FC2
:10084000E061BE2EB4FE0DC0FB2DF460BF2E09C0CA
:1008500034FE0AC0292F2660B22E06C028E030E000
:1008600005C020E130E002C020E132E0F801B7FE2F
:1008700007C060817181828193810C5F1F4F06C028
:100880006081718180E090E00E5F1F4FA3010E94A4
:100890002B05882E8618FB2DFF773F2E36FE0DC0C8
:1008A000232D2E7FA22E891458F434FE0BC032FC67
:1008B00009C0832D8E7EA82E05C0B82CA32C03C0A2
:1008C000B82C01C0B92CA4FE0FC0FE01E80DF11D2B
:1008D0008081803321F49A2D997EA92E09C0A2FE31
:1008E00006C0B394B39404C08A2D867809F0B394FB
:1008F000A3FC11C0A0FE06C0B21488F4280C922CF0
:100900009B180EC0B21460F4B60180E290E00E9421
:10091000EF04B394F7CFB21418F42B1802C0982C3C
:10092000212CA4FE10C0B60180E390E00E94EF04E9
:10093000A2FE17C0A1FC03C088E790E002C088E5D2
:1009400090E0B6010CC08A2D867859F0A1FE02C055
:100950008BE201C080E2A7FC8DE2B60190E00E942C
:10096000EF04891438F4B60180E390E00E94EF04AC
:100970009A94F7CF8A94F301E80DF11D8081B601B6
:1009800090E00E94EF048110F5CF222009F442CEBE
:10099000B60180E290E00E94EF042A94F6CFF601BF
:1009A0008681978102C08FEF9FEF2B96E2E10C9436
:1009B000A505FC010590615070400110D8F78095A5
:1009C00090958E0F9F1F0895FC016150704001901B
:1009D0000110D8F7809590958E0F9F1F08950F9363
:1009E0001F93CF93DF93FB01238121FD03C08FEF82
:1009F0009FEF2CC022FF16C046815781248135818C
:100A00004217530744F4A081B1819D012F5F3F4FEE
:100A1000318320838C93268137812F5F3F4F37832B
:100A2000268314C08B01EC01FB010084F185E02DCD
:100A30000995892BE1F6D80116968D919C9117970F
:100A4000019617969C938E931697CE01DF91CF91C6
:100A50001F910F910895FA01AA27283051F12031F2
:100A600081F1E8946F936E7F6E5F7F4F8F4F9F4F42
:100A7000AF4FB1E03ED0B4E03CD0670F781F891F84
:100A80009A1FA11D680F791F8A1F911DA11D6A0F52
:100A9000711D811D911DA11D20D009F468943F9105
:100AA0002AE0269F11243019305D3193DEF6CF0104
:100AB0000895462F4770405D4193B3E00FD0C9F7CA
:100AC000F6CF462F4F70405D4A3318F0495D31FD37
:100AD0004052419302D0A9F7EACFB4E0A69597958A
:100AE000879577956795BA95C9F700976105710560
:100AF00008959B01AC010A2E0694579547953795AA
:100B00002795BA95C9F7620F731F841F951FA01D03
:100B100008952F923F924F925F926F927F928F92A1
:100B20009F92AF92BF92CF92DF92EF92FF920F937C
:100B30001F93CF93DF93CDB7DEB7CA1BDB0B0FB686
:100B4000F894DEBF0FBECDBF09942A883988488843
:100B50005F846E847D848C849B84AA84B984C884D9
:100B6000DF80EE80FD800C811B81AA81B981CE0FD0
:100B7000D11D0FB6F894DEBF0FBECDBFED010895B5
:040B8000F894FFCF17
:100B840000000002000000001901000000004154B0
:100B94000D0041542B43574D4F44453D310D004109
:100BA400542B43574A41503D224D69636861656C3B
:100BB400206950686F6E65222C2268656C6C6F200A
:100BC400646164220D0041542B4349504D55583DF6
:100BD400300D0041542B43495053544152543D224B
:100BE400544350222C226170692E7468696E6773B5
:100BF4007065616B2E636F6D222C38300D0041548B
:100C04002B43495053454E443D3130340D00474544
:100C1400542068747470733A2F2F6170692E74684D
:100C2400696E67737065616B2E636F6D2F75706489
:100C34006174653F6170695F6B65793D34474F59F5
:100C4400374E364D51324D4B4A4F533926666965FE
:100C54006C64313D25303575266669656C64323DBA
:100C640025303575266669656C64333D25303575E8
:040C74000D0A000065
:00000001FF
